{
  "_format": "hh-sol-artifact-1",
  "contractName": "trackFood",
  "sourceName": "contracts/foodTracking.sol",
  "abi": [
    {
      "inputs": [],
      "stateMutability": "nonpayable",
      "type": "constructor"
    },
    {
      "anonymous": false,
      "inputs": [
        {
          "indexed": true,
          "internalType": "string",
          "name": "productName",
          "type": "string"
        },
        {
          "indexed": true,
          "internalType": "uint256",
          "name": "productCost",
          "type": "uint256"
        },
        {
          "indexed": false,
          "internalType": "address",
          "name": "manufacturer",
          "type": "address"
        },
        {
          "indexed": false,
          "internalType": "address",
          "name": "reciever",
          "type": "address"
        }
      ],
      "name": "OrderCreated",
      "type": "event"
    },
    {
      "inputs": [
        {
          "internalType": "string",
          "name": "_productName",
          "type": "string"
        },
        {
          "internalType": "string",
          "name": "_productCatogery",
          "type": "string"
        },
        {
          "internalType": "string",
          "name": "_timeOfDispatch",
          "type": "string"
        },
        {
          "internalType": "string",
          "name": "_currentLocation",
          "type": "string"
        },
        {
          "internalType": "string",
          "name": "_expectedDelivery",
          "type": "string"
        },
        {
          "internalType": "string",
          "name": "_recieverLocation",
          "type": "string"
        },
        {
          "internalType": "address",
          "name": "_manufacturerAddress",
          "type": "address"
        },
        {
          "internalType": "address",
          "name": "_recieverAddress",
          "type": "address"
        },
        {
          "internalType": "uint256",
          "name": "_productCost",
          "type": "uint256"
        }
      ],
      "name": "Initiation",
      "outputs": [],
      "stateMutability": "nonpayable",
      "type": "function"
    },
    {
      "inputs": [
        {
          "internalType": "string",
          "name": "_productCatogery",
          "type": "string"
        },
        {
          "internalType": "string",
          "name": "_productName",
          "type": "string"
        },
        {
          "internalType": "address",
          "name": "recieverAddress",
          "type": "address"
        }
      ],
      "name": "Shipped",
      "outputs": [],
      "stateMutability": "nonpayable",
      "type": "function"
    },
    {
      "inputs": [
        {
          "internalType": "address",
          "name": "creator",
          "type": "address"
        }
      ],
      "name": "addCreator",
      "outputs": [],
      "stateMutability": "nonpayable",
      "type": "function"
    },
    {
      "inputs": [
        {
          "internalType": "string",
          "name": "_productCatogery",
          "type": "string"
        },
        {
          "internalType": "string",
          "name": "_productName",
          "type": "string"
        }
      ],
      "name": "approveDelivery",
      "outputs": [],
      "stateMutability": "nonpayable",
      "type": "function"
    },
    {
      "inputs": [],
      "name": "balance",
      "outputs": [
        {
          "internalType": "uint256",
          "name": "",
          "type": "uint256"
        }
      ],
      "stateMutability": "view",
      "type": "function"
    },
    {
      "inputs": [
        {
          "internalType": "address",
          "name": "",
          "type": "address"
        },
        {
          "internalType": "string",
          "name": "",
          "type": "string"
        }
      ],
      "name": "costOwned",
      "outputs": [
        {
          "internalType": "address",
          "name": "reciever",
          "type": "address"
        },
        {
          "internalType": "uint256",
          "name": "amount",
          "type": "uint256"
        }
      ],
      "stateMutability": "view",
      "type": "function"
    },
    {
      "inputs": [
        {
          "internalType": "string",
          "name": "",
          "type": "string"
        },
        {
          "internalType": "string",
          "name": "",
          "type": "string"
        }
      ],
      "name": "foods",
      "outputs": [
        {
          "internalType": "string",
          "name": "productName",
          "type": "string"
        },
        {
          "internalType": "enum trackFood.STATE",
          "name": "state",
          "type": "uint8"
        },
        {
          "internalType": "string",
          "name": "timeOfDispatch",
          "type": "string"
        },
        {
          "internalType": "string",
          "name": "currentLocation",
          "type": "string"
        },
        {
          "internalType": "string",
          "name": "expectedDelivery",
          "type": "string"
        },
        {
          "internalType": "string",
          "name": "recieverLocation",
          "type": "string"
        },
        {
          "internalType": "address",
          "name": "manufacturerAddress",
          "type": "address"
        },
        {
          "internalType": "address",
          "name": "recieverAddress",
          "type": "address"
        },
        {
          "internalType": "uint256",
          "name": "productCost",
          "type": "uint256"
        },
        {
          "internalType": "bool",
          "name": "exist",
          "type": "bool"
        }
      ],
      "stateMutability": "view",
      "type": "function"
    },
    {
      "inputs": [
        {
          "internalType": "string",
          "name": "_productName",
          "type": "string"
        },
        {
          "internalType": "string",
          "name": "_productCategory",
          "type": "string"
        }
      ],
      "name": "order",
      "outputs": [],
      "stateMutability": "payable",
      "type": "function"
    }
  ],
  "bytecode": "0x60a060405234801561001057600080fd5b503373ffffffffffffffffffffffffffffffffffffffff1660808173ffffffffffffffffffffffffffffffffffffffff1660601b815250506004339080600181540180825580915050600190039060005260206000200160009091909190916101000a81548173ffffffffffffffffffffffffffffffffffffffff021916908373ffffffffffffffffffffffffffffffffffffffff16021790555060805160601c61235d6100d06000396000818161052a015261100f015261235d6000f3fe60806040526004361061007b5760003560e01c806378e2c6a21161004e57806378e2c6a21461012c578063a4ce73eb14610172578063b69ef8a81461019b578063dbd5d261146101c65761007b565b8063322c9d8014610080578063396ffb111461009c5780633b9dce05146100da5780634d0b623814610103575b600080fd5b61009a600480360381019061009591906117f3565b6101ef565b005b3480156100a857600080fd5b506100c360048036038101906100be9190611797565b6104c1565b6040516100d1929190611c7b565b60405180910390f35b3480156100e657600080fd5b5061010160048036038101906100fc919061176a565b610528565b005b34801561010f57600080fd5b5061012a6004803603810190610125919061186b565b61061c565b005b34801561013857600080fd5b50610153600480360381019061014e91906117f3565b61081e565b6040516101699a99989796959493929190611ca4565b60405180910390f35b34801561017e57600080fd5b50610199600480360381019061019491906118f6565b610bad565b005b3480156101a757600080fd5b506101b061100b565b6040516101bd9190611e43565b60405180910390f35b3480156101d257600080fd5b506101ed60048036038101906101e891906117f3565b6110b8565b005b600080826040516102009190611c26565b90815260200160405180910390208360405161021c9190611c26565b90815260200160405180910390206008015490508034101561038b576000826040516102489190611c26565b9081526020016040518091039020836040516102649190611c26565b90815260200160405180910390206000808201600061028391906115ed565b6001820160006101000a81549060ff02191690556002820160006102a791906115ed565b6003820160006102b791906115ed565b6004820160006102c791906115ed565b6005820160006102d791906115ed565b6006820160006101000a81549073ffffffffffffffffffffffffffffffffffffffff02191690556007820160006101000a81549073ffffffffffffffffffffffffffffffffffffffff021916905560088201600090556009820160006101000a81549060ff0219169055505080341015610386576040517f08c379a000000000000000000000000000000000000000000000000000000000815260040161037d90611e23565b60405180910390fd5b6104bc565b600160008360405161039d9190611c26565b9081526020016040518091039020846040516103b99190611c26565b908152602001604051809103902060010160006101000a81548160ff021916908360038111156103ec576103eb612070565b5b0217905550604051806080016040528082815260200183815260200184815260200160011515815250600360003373ffffffffffffffffffffffffffffffffffffffff1673ffffffffffffffffffffffffffffffffffffffff16815260200190815260200160002060008201518160000155602082015181600101908051906020019061047a92919061162d565b50604082015181600201908051906020019061049792919061162d565b5060608201518160030160006101000a81548160ff0219169083151502179055509050505b505050565b600160205281600052604060002081805160208101820180518482526020830160208501208183528095505050505050600091509150508060000160009054906101000a900473ffffffffffffffffffffffffffffffffffffffff16908060010154905082565b7f000000000000000000000000000000000000000000000000000000000000000073ffffffffffffffffffffffffffffffffffffffff163373ffffffffffffffffffffffffffffffffffffffff16146105b6576040517f08c379a00000000000000000000000000000000000000000000000000000000081526004016105ad90611d83565b60405180910390fd5b6004819080600181540180825580915050600190039060005260206000200160009091909190916101000a81548173ffffffffffffffffffffffffffffffffffffffff021916908373ffffffffffffffffffffffffffffffffffffffff16021790555050565b828260008260405161062e9190611c26565b90815260200160405180910390208160405161064a9190611c26565b908152602001604051809103902060090160009054906101000a900460ff166106a8576040517f08c379a000000000000000000000000000000000000000000000000000000000815260040161069f90611dc3565b60405180910390fd5b600160038111156106bc576106bb612070565b5b6000866040516106cc9190611c26565b9081526020016040518091039020856040516106e89190611c26565b908152602001604051809103902060010160009054906101000a900460ff16600381111561071957610718612070565b5b1480156107725750600360008473ffffffffffffffffffffffffffffffffffffffff1673ffffffffffffffffffffffffffffffffffffffff16815260200190815260200160002060030160009054906101000a900460ff165b6107b1576040517f08c379a00000000000000000000000000000000000000000000000000000000081526004016107a890611da3565b60405180910390fd5b60026000866040516107c39190611c26565b9081526020016040518091039020856040516107df9190611c26565b908152602001604051809103902060010160006101000a81548160ff0219169083600381111561081257610811612070565b5b02179055505050505050565b600082805160208101820180518482526020830160208501208183528095505050505050818051602081018201805184825260208301602085012081835280955050505050506000915091505080600001805461087a90611f95565b80601f01602080910402602001604051908101604052809291908181526020018280546108a690611f95565b80156108f35780601f106108c8576101008083540402835291602001916108f3565b820191906000526020600020905b8154815290600101906020018083116108d657829003601f168201915b5050505050908060010160009054906101000a900460ff169080600201805461091b90611f95565b80601f016020809104026020016040519081016040528092919081815260200182805461094790611f95565b80156109945780601f1061096957610100808354040283529160200191610994565b820191906000526020600020905b81548152906001019060200180831161097757829003601f168201915b5050505050908060030180546109a990611f95565b80601f01602080910402602001604051908101604052809291908181526020018280546109d590611f95565b8015610a225780601f106109f757610100808354040283529160200191610a22565b820191906000526020600020905b815481529060010190602001808311610a0557829003601f168201915b505050505090806004018054610a3790611f95565b80601f0160208091040260200160405190810160405280929190818152602001828054610a6390611f95565b8015610ab05780601f10610a8557610100808354040283529160200191610ab0565b820191906000526020600020905b815481529060010190602001808311610a9357829003601f168201915b505050505090806005018054610ac590611f95565b80601f0160208091040260200160405190810160405280929190818152602001828054610af190611f95565b8015610b3e5780601f10610b1357610100808354040283529160200191610b3e565b820191906000526020600020905b815481529060010190602001808311610b2157829003601f168201915b5050505050908060060160009054906101000a900473ffffffffffffffffffffffffffffffffffffffff16908060070160009054906101000a900473ffffffffffffffffffffffffffffffffffffffff16908060080154908060090160009054906101000a900460ff1690508a565b6000805b600480549050811015610c48573373ffffffffffffffffffffffffffffffffffffffff1660048281548110610be957610be86120ce565b5b9060005260206000200160009054906101000a900473ffffffffffffffffffffffffffffffffffffffff1673ffffffffffffffffffffffffffffffffffffffff161415610c3557600191505b8080610c4090611ff8565b915050610bb1565b5080610c89576040517f08c379a0000000000000000000000000000000000000000000000000000000008152600401610c8090611de3565b60405180910390fd5b60006040518061014001604052808c815260200160006003811115610cb157610cb0612070565b5b81526020018a81526020018981526020018881526020018781526020018673ffffffffffffffffffffffffffffffffffffffff1681526020018573ffffffffffffffffffffffffffffffffffffffff1681526020018481526020016001151581525090508060008b604051610d269190611c26565b90815260200160405180910390208c604051610d429190611c26565b90815260200160405180910390206000820151816000019080519060200190610d6c92919061162d565b5060208201518160010160006101000a81548160ff02191690836003811115610d9857610d97612070565b5b02179055506040820151816002019080519060200190610db992919061162d565b506060820151816003019080519060200190610dd692919061162d565b506080820151816004019080519060200190610df392919061162d565b5060a0820151816005019080519060200190610e1092919061162d565b5060c08201518160060160006101000a81548173ffffffffffffffffffffffffffffffffffffffff021916908373ffffffffffffffffffffffffffffffffffffffff16021790555060e08201518160070160006101000a81548173ffffffffffffffffffffffffffffffffffffffff021916908373ffffffffffffffffffffffffffffffffffffffff16021790555061010082015181600801556101208201518160090160006101000a81548160ff021916908315150217905550905050600060405180604001604052808773ffffffffffffffffffffffffffffffffffffffff16815260200185815250905080600160008873ffffffffffffffffffffffffffffffffffffffff1673ffffffffffffffffffffffffffffffffffffffff1681526020019081526020016000208d604051610f4b9190611c26565b908152602001604051809103902060008201518160000160006101000a81548173ffffffffffffffffffffffffffffffffffffffff021916908373ffffffffffffffffffffffffffffffffffffffff16021790555060208201518160010155905050838c604051610fbc9190611c26565b60405180910390207f53e8a01537869dc8fa83e936fe11a2fb45f30db599f2136130c05ac84f535b578888604051610ff5929190611c52565b60405180910390a3505050505050505050505050565b60007f000000000000000000000000000000000000000000000000000000000000000073ffffffffffffffffffffffffffffffffffffffff163373ffffffffffffffffffffffffffffffffffffffff161461109b576040517f08c379a000000000000000000000000000000000000000000000000000000000815260040161109290611d83565b60405180910390fd5b3073ffffffffffffffffffffffffffffffffffffffff1631905090565b81816000826040516110ca9190611c26565b9081526020016040518091039020816040516110e69190611c26565b908152602001604051809103902060090160009054906101000a900460ff16611144576040517f08c379a000000000000000000000000000000000000000000000000000000000815260040161113b90611dc3565b60405180910390fd5b6000846040516111549190611c26565b9081526020016040518091039020836040516111709190611c26565b908152602001604051809103902060070160009054906101000a900473ffffffffffffffffffffffffffffffffffffffff1673ffffffffffffffffffffffffffffffffffffffff163373ffffffffffffffffffffffffffffffffffffffff1614801561124a5750600260038111156111eb576111ea612070565b5b6000856040516111fb9190611c26565b9081526020016040518091039020846040516112179190611c26565b908152602001604051809103902060010160009054906101000a900460ff16600381111561124857611247612070565b5b145b611289576040517f08c379a000000000000000000000000000000000000000000000000000000000815260040161128090611d63565b60405180910390fd5b600360008560405161129b9190611c26565b9081526020016040518091039020846040516112b79190611c26565b908152602001604051809103902060010160006101000a81548160ff021916908360038111156112ea576112e9612070565b5b02179055506112f984846112ff565b50505050565b81816000826040516113119190611c26565b90815260200160405180910390208160405161132d9190611c26565b908152602001604051809103902060090160009054906101000a900460ff1661138b576040517f08c379a000000000000000000000000000000000000000000000000000000000815260040161138290611dc3565b60405180910390fd5b6000808560405161139c9190611c26565b9081526020016040518091039020846040516113b89190611c26565b908152602001604051809103902060060160009054906101000a900473ffffffffffffffffffffffffffffffffffffffff169050600080866040516113fd9190611c26565b9081526020016040518091039020856040516114199190611c26565b908152602001604051809103902060080154905060008660405161143d9190611c26565b9081526020016040518091039020856040516114599190611c26565b90815260200160405180910390206000808201600061147891906115ed565b6001820160006101000a81549060ff021916905560028201600061149c91906115ed565b6003820160006114ac91906115ed565b6004820160006114bc91906115ed565b6005820160006114cc91906115ed565b6006820160006101000a81549073ffffffffffffffffffffffffffffffffffffffff02191690556007820160006101000a81549073ffffffffffffffffffffffffffffffffffffffff021916905560088201600090556009820160006101000a81549060ff0219169055505060008273ffffffffffffffffffffffffffffffffffffffff168260405161155e90611c3d565b60006040518083038185875af1925050503d806000811461159b576040519150601f19603f3d011682016040523d82523d6000602084013e6115a0565b606091505b50509050806115e4576040517f08c379a00000000000000000000000000000000000000000000000000000000081526004016115db90611e03565b60405180910390fd5b50505050505050565b5080546115f990611f95565b6000825580601f1061160b575061162a565b601f01602090049060005260206000209081019061162991906116b3565b5b50565b82805461163990611f95565b90600052602060002090601f01602090048101928261165b57600085556116a2565b82601f1061167457805160ff19168380011785556116a2565b828001600101855582156116a2579182015b828111156116a1578251825591602001919060010190611686565b5b5090506116af91906116b3565b5090565b5b808211156116cc5760008160009055506001016116b4565b5090565b60006116e36116de84611e83565b611e5e565b9050828152602081018484840111156116ff576116fe612131565b5b61170a848285611f53565b509392505050565b600081359050611721816122f9565b92915050565b600082601f83011261173c5761173b61212c565b5b813561174c8482602086016116d0565b91505092915050565b60008135905061176481612310565b92915050565b6000602082840312156117805761177f61213b565b5b600061178e84828501611712565b91505092915050565b600080604083850312156117ae576117ad61213b565b5b60006117bc85828601611712565b925050602083013567ffffffffffffffff8111156117dd576117dc612136565b5b6117e985828601611727565b9150509250929050565b6000806040838503121561180a5761180961213b565b5b600083013567ffffffffffffffff81111561182857611827612136565b5b61183485828601611727565b925050602083013567ffffffffffffffff81111561185557611854612136565b5b61186185828601611727565b9150509250929050565b6000806000606084860312156118845761188361213b565b5b600084013567ffffffffffffffff8111156118a2576118a1612136565b5b6118ae86828701611727565b935050602084013567ffffffffffffffff8111156118cf576118ce612136565b5b6118db86828701611727565b92505060406118ec86828701611712565b9150509250925092565b60008060008060008060008060006101208a8c0312156119195761191861213b565b5b60008a013567ffffffffffffffff81111561193757611936612136565b5b6119438c828d01611727565b99505060208a013567ffffffffffffffff81111561196457611963612136565b5b6119708c828d01611727565b98505060408a013567ffffffffffffffff81111561199157611990612136565b5b61199d8c828d01611727565b97505060608a013567ffffffffffffffff8111156119be576119bd612136565b5b6119ca8c828d01611727565b96505060808a013567ffffffffffffffff8111156119eb576119ea612136565b5b6119f78c828d01611727565b95505060a08a013567ffffffffffffffff811115611a1857611a17612136565b5b611a248c828d01611727565b94505060c0611a358c828d01611712565b93505060e0611a468c828d01611712565b925050610100611a588c828d01611755565b9150509295985092959850929598565b611a7181611ee6565b82525050565b611a8081611ef8565b82525050565b611a8f81611f41565b82525050565b6000611aa082611eb4565b611aaa8185611eca565b9350611aba818560208601611f62565b611ac381612140565b840191505092915050565b6000611ad982611eb4565b611ae38185611edb565b9350611af3818560208601611f62565b80840191505092915050565b6000611b0c602583611eca565b9150611b1782612151565b604082019050919050565b6000611b2f601583611eca565b9150611b3a826121a0565b602082019050919050565b6000611b52602483611eca565b9150611b5d826121c9565b604082019050919050565b6000611b75601b83611eca565b9150611b8082612218565b602082019050919050565b6000611b98602583611eca565b9150611ba382612241565b604082019050919050565b6000611bbb600083611ebf565b9150611bc682612290565b600082019050919050565b6000611bde601483611eca565b9150611be982612293565b602082019050919050565b6000611c01601683611eca565b9150611c0c826122bc565b602082019050919050565b611c2081611f37565b82525050565b6000611c328284611ace565b915081905092915050565b6000611c4882611bae565b9150819050919050565b6000604082019050611c676000830185611a68565b611c746020830184611a68565b9392505050565b6000604082019050611c906000830185611a68565b611c9d6020830184611c17565b9392505050565b6000610140820190508181036000830152611cbf818d611a95565b9050611cce602083018c611a86565b8181036040830152611ce0818b611a95565b90508181036060830152611cf4818a611a95565b90508181036080830152611d088189611a95565b905081810360a0830152611d1c8188611a95565b9050611d2b60c0830187611a68565b611d3860e0830186611a68565b611d46610100830185611c17565b611d54610120830184611a77565b9b9a5050505050505050505050565b60006020820190508181036000830152611d7c81611aff565b9050919050565b60006020820190508181036000830152611d9c81611b22565b9050919050565b60006020820190508181036000830152611dbc81611b45565b9050919050565b60006020820190508181036000830152611ddc81611b68565b9050919050565b60006020820190508181036000830152611dfc81611b8b565b9050919050565b60006020820190508181036000830152611e1c81611bd1565b9050919050565b60006020820190508181036000830152611e3c81611bf4565b9050919050565b6000602082019050611e586000830184611c17565b92915050565b6000611e68611e79565b9050611e748282611fc7565b919050565b6000604051905090565b600067ffffffffffffffff821115611e9e57611e9d6120fd565b5b611ea782612140565b9050602081019050919050565b600081519050919050565b600081905092915050565b600082825260208201905092915050565b600081905092915050565b6000611ef182611f17565b9050919050565b60008115159050919050565b6000819050611f12826122e5565b919050565b600073ffffffffffffffffffffffffffffffffffffffff82169050919050565b6000819050919050565b6000611f4c82611f04565b9050919050565b82818337600083830152505050565b60005b83811015611f80578082015181840152602081019050611f65565b83811115611f8f576000848401525b50505050565b60006002820490506001821680611fad57607f821691505b60208210811415611fc157611fc061209f565b5b50919050565b611fd082612140565b810181811067ffffffffffffffff82111715611fef57611fee6120fd565b5b80604052505050565b600061200382611f37565b91507fffffffffffffffffffffffffffffffffffffffffffffffffffffffffffffffff82141561203657612035612041565b5b600182019050919050565b7f4e487b7100000000000000000000000000000000000000000000000000000000600052601160045260246000fd5b7f4e487b7100000000000000000000000000000000000000000000000000000000600052602160045260246000fd5b7f4e487b7100000000000000000000000000000000000000000000000000000000600052602260045260246000fd5b7f4e487b7100000000000000000000000000000000000000000000000000000000600052603260045260246000fd5b7f4e487b7100000000000000000000000000000000000000000000000000000000600052604160045260246000fd5b600080fd5b600080fd5b600080fd5b600080fd5b6000601f19601f8301169050919050565b7f596f7520617265206e6f7420746865207265636965766572206f66207468697360008201527f206974656d000000000000000000000000000000000000000000000000000000602082015250565b7f596f7520617265206e6f7420746865206f776e65720000000000000000000000600082015250565b7f50726f64756374206e6f742065786974206f7220457468206973206e6f74207060008201527f6179656400000000000000000000000000000000000000000000000000000000602082015250565b7f546869732070726f6475637420646f6573206e6f742065786973740000000000600082015250565b7f596f7520617265206e6f7420612063726561746f72206f66207468652073686960008201527f706d656e74000000000000000000000000000000000000000000000000000000602082015250565b50565b7f6661696c656420746f2073656e64204574686572000000000000000000000000600082015250565b7f596f75206e65656420746f207370656e64206d6f726500000000000000000000600082015250565b600481106122f6576122f5612070565b5b50565b61230281611ee6565b811461230d57600080fd5b50565b61231981611f37565b811461232457600080fd5b5056fea264697066735822122065f237dff93c2c7b06036da65e0ae0cb7333567bd85b83d4ca7c9f23317dbd4064736f6c63430008070033",
  "linkReferences": {},
  "deployedLinkReferences": {}
}